:1000000006308A00072E00000A108A100A118207A3
:10001000003401340234043403340534013402342E
:1000200020340334073403340634063402340434F1
:100030000334033406340634023403340334053401
:1000400007340334073420342034073407340634AB
:1000500006340334033405340034063406340434DF
:100060000334053401340134073420342034073498
:1000700000340634023404340334053400340634C6
:1000800002340334033405340A108A100A1182073B
:1000900007340F341F341F341F341F341F341F34F0
:1000A0001F341F341F340034003400340034003453
:1000B0001C341E341F341F341F341F341F341F34AC
:1000C000003400340034003400341F341F341F3433
:1000D0001F341F341F341F341F341F340F340734B0
:1000E0001F341F341F341F341F341F341E341C347C
:1000F0001F341F341F340034003400341F341F34C5
:100100001F341F341F341F341F341F341F341F3457
:100110000A108A100A118207FE34FD34FB34F734CA
:10012000A02252294F292028CF29492AC9274E1019
:100130000000C83A7937682AE834D13A7937682814
:10014000E83A6F3767003219311B3118B61B0000CF
:100150004537F4327210D030F339F73772323A0043
:100160002A002A002A002A002A002A002A002A003F
:10017000201020102010201020102000C131E33268
:10018000F339A023F2306E3A65322010201020108F
:10019000200054397910E133E1346E1D20224527C7
:1001A000C92244102010201020004B18D928851295
:1001B000DA288516831685128312CB18E1280512DA
:1001C000E22805168316051283124B19E9288511BA
:1001D000EA288515831685118312CB19F12805119C
:1001E000F22805158316051183120800C80E480869
:1001F000CB00D520831609118312091183168910AB
:1002000083128910831609108312091407290829FB
:10021000000083160910831209105230F700F70B03
:100220000F2912290000C80E4808CB00D5208316DC
:100230000910831209141C291D29000083160910B6
:10024000831209105230F700F70B242927290000E8
:100250000800473084008313000803193C29063046
:10026000F800F701F70B3229F80B31297B30F70042
:10027000F70B3829800B2F290800003083168800DF
:1002800002308312C800F6200230C7002921063050
:10029000C800F6202830C800F6200C30C800F62030
:1002A0000130C800F6206430C70029210800CA0EBA
:1002B0004A08CB00D520831609118312091583162D
:1002C0008910831289108316091083120914682972
:1002D0006929000083160910831209105230F700B3
:1002E000F70B702973290000CA0E4A08CB00D520ED
:1002F00083160910831209147D297E2900008316B4
:100300000910831209105230F700F70B852988294C
:1003100000000800003083168500803087008312BB
:10032000A000F03083168600950081130910891013
:10033000091189118030880000308312A0008316D3
:100340008701831287018316081383120813201173
:10035000200883168700831207153D214030C8000E
:10036000F620BE013E083F3C031CBD293E08442048
:10037000BF00CA005721BE0AB2298A110A12372EBD
:10038000831608138312081708000B08C7008B1385
:10039000831603178C170C1400000000831203133C
:1003A000C71B8B1703170C087F390319192A03136E
:1003B000C70003170D080313C80003170F08031322
:1003C000C9004708CA005721480803178D000313C6
:1003D000490803178F0003130B08CA008B138316F9
:1003E00003178C170C140000000083120313CA1BA0
:1003F0008B1703170C0D0E0D7F390319192A0313E0
:10040000C70003170D080313C80003170F080313D1
:10041000C9004708CA005721480803178D00031375
:10042000490803178F008D0A03198F0A0313C52982
:10043000031703130800C030C800F62099300317D3
:100440008D0000308F000313C5219930C800F620BD
:10045000A33003178D0000308F000313C5218A11CC
:100460000A12392E0830F8000430F700F70B362A4C
:100470008711A0112008831687000330F700F70BBF
:100480003F2A8312BF0D0712031C4C2A2016200896
:1004900083168700502A83122012200883168700B3
:1004A00000008312A0152008831687008312871D81
:1004B000572AF80B342A0430F700F70B5D2A87110E
:1004C000A011200883168700000083122016200840
:1004D000831687000330F700F70B6C2A0330F70010
:1004E000F70B702A8312A015200883168700831249
:1004F000871D782AF8010330F700F70B7D2A071AC9
:1005000078148711A0112008831687008312071220
:100510002012200883168700831208000830C000CC
:100520007708C10020162008831687000330F700E3
:10053000F70B982A8312A0152008831687008312D0
:10054000871DA02A071A0314071E0310F80D043094
:10055000F700F70BA92AA011200883168700831241
:100560008711C00B922A20162008831687000330BB
:10057000F700F70BB92A8312071241080319C52A9D
:10058000201220088316870083120000A01520087F
:10059000831687008312871DCB2A0430F700F70BE0
:1005A000CF2A8711A0112008831687000330F70097
:1005B000F70BD82A8312071220122008831687000F
:1005C0008312080020162008831687000430F700E5
:1005D000F70BE82A8312A015200883168700033042
:1005E000F700F70BF12A8312071220122008831656
:1005F00087000430F700F70BFB2A83128711A01144
:10060000200883168700D0308312BF003222BF013A
:10061000322220162008831687000430F700F70BDB
:100620000F2B8312A0152008831687000330F700D4
:10063000F70B182B8312871D1B2B07122012200883
:10064000831687000430F700F70B242B83128711E1
:10065000A011200883168700D1308312BF003222F8
:100660000130F7008E227808A7000130F7008E22B3
:100670007808A6000130F7008E227808A500013026
:10068000F7008E227808A4000130F7008E22780847
:10069000A3000130F7008E227808A2000130F70095
:1006A0008E227808A1000130F7008E227808A90078
:1006B000F7018E227808A8002012200883168700F0
:1006C00000008312A0152008831687008312871D5F
:1006D000672B0430F700F70B6B2B6E2B00002016F6
:1006E0002008831687000430F700F70B752B831260
:1006F00008004508003A0319872B013A03198D2B8E
:10070000033A0319932B013A0319992B9F2B80303D
:100710004607C700C800F620A82BC0304607C70010
:10072000C800F620A82B94304607C700C800F62062
:10073000A82BD4304607C700C800F620A82B3D21BF
:10074000903003178D0000308F000313C521A72BB5
:1007500008004108C5004208C6007923C3014308C8
:10076000053C031CEE2B4308033C031DBE2B01304C
:100770004107C400C5004208C60079234008C400F0
:100780000630C500F701F801440803104518F707C3
:10079000F70CF80CC518F707F70CF80C4519F70714
:1007A000F70CF80CC519F707F70CF80C451AF70702
:1007B000F70CF80CC51AF707F70CF80C451BF707F0
:1007C000F70CF80CC51BF707F70CF80C4308780773
:1007D0000420C400CA005721C30AAF2B0800250E0D
:1007E000BF000F30BF053F08C000C101C201A923EF
:1007F00025080F39BF00C000C1010330C200A92382
:10080000260EBF000F30BF053F08C000C1010730F2
:10081000C200A92326080F39BF00C000C1010A3059
:10082000C200A923270EBF000F30BF053F08C0003C
:10083000C1010E30C200A92327080F39BF00C00034
:10084000C1011130C200A92308009430C800F6206D
:10085000A83003178D0000308F000313C521080056
:10086000E22227082A020319382C2708AA00EF23BE
:100870000800FF30AB00AD00AC012C08033C031CAA
:100880006D2C2C088820BE008316860183123E083A
:100890008600831606168312061A522C0330AB000C
:1008A0006D2C6B2C831686168312861A5B2C0230F5
:1008B000AB006D2C6B2C831606178312061B642C61
:1008C0000130AB006D2C6B2C831686178312861BB0
:1008D0006B2CAB016D2CAC0A3D2C2B0F702C7B2CA0
:1008E0002C08033CBE002B0DF700F70DFC30F7057C
:1008F00077083E07AD002D080319AC2C013A031907
:10090000AF2C033A0319B22C013A0319B52C073A5C
:100910000319B82C013A0319BB2C033A0319BE2C56
:10092000013A0319C12C0F3A0319C42C013A0319D7
:10093000C62C033A0319C92C013A0319CC2C073AE7
:100940000319CF2C013A0319D22C033A0319D52CE1
:10095000013A0319D82CDB2C0D30AD00DB2C0C3008
:10096000AD00DB2C0B30AD00DB2C0A30AD00DB2CF6
:100970000F30AD00DB2C0930AD00DB2C0630AD00B4
:10098000DB2C0330AD00DB2CAD01DB2C0830AD00DF
:10099000DB2C0530AD00DB2C0230AD00DB2C0E3043
:1009A000AD00DB2C0730AD00DB2C0430AD00DB2CC0
:1009B0000130AD00DB2C080039242D0FE02CF02C89
:1009C0000A30C700292139242D0FE72CF02C2D08DF
:1009D000AE002D0FEC2CEE2C3924E92C2E08AD00A6
:1009E0008A110A124A2E3B08053C031CFE2C3530A6
:1009F0003B07840083132D088000BB0A8A110A126A
:100A0000522ED4303B07FF3EBE00C800F620013016
:100A10003B02353E8400831330300007BE00CA001D
:100A200057210230BE00C830C7002921BE0B132D4C
:100A3000D4303B07FF3EBE00C800F620B03003179D
:100A40008D0000308F000313C5218A110A12532E26
:100A5000D4303C07BE00C800F62001303C02F93E0D
:100A60000318A32D073EA62DD4303C07FF3EBE0041
:100A7000C800F620B13003178D0000308F0003133B
:100A8000C521BC03BB03A32DD4303C07FF3EBE00F1
:100A9000C800F620B23003178D0000308F0003131A
:100AA000C521BC03BB03A32DD4303C07FF3EBE00D1
:100AB000C800F620B33003178D0000308F000313F9
:100AC000C521BC03BB03A32DD4303C07FF3EBE00B1
:100AD000C800F620B43003178D0000308F000313D8
:100AE000C521BC03BB03A32DD4303C07FF3EBE0091
:100AF000C800F620B53003178D0000308F000313B7
:100B0000C521BC03BB03A32DD4303C07FF3EBE0070
:100B1000C800F620B63003178D0000308F00031395
:100B2000C521BC03BB03A32DD4303C07FF3EBE0050
:100B3000C800F620B73003178D0000308F00031374
:100B4000C521BC03BB038A110A12592E0A148A104C
:100B50000A158207942D842D742D642D542D442D57
:100B6000342DBC013C08BB00D430C800F620B8309E
:100B700003178D0000308F000313C5210800A0105B
:100B800020088316870083128714201120088316FB
:100B90008700831207112010200883168700831214
:100BA00007108316081383120813B1259430C80068
:100BB000F620BE3003178D0000308F000313C521CF
:100BC0000130BD00BD080319062EBE013E08633C7E
:100BD000031CF02D3230C70029213024BE0AE62D37
:100BE000B1252524BD01A01020088316870083129B
:100BF0008710201120088316870083120715201004
:100C000020088316870083120710C02108000308FC
:100C10001F398300831603178715083003139900C3
:100C200002309A00A6309800903083129800FF306E
:100C3000A000BB01BD01831603170908C039890054
:100C400003131F129F1200300317880083128701BD
:100C500088018901831302300313AF000430B00010
:100C6000B1010130B200B3010430B4008A29C021BF
:100C70001B2A0430BE00FA30C7002921BE0B3B2ED0
:100C80000130C800F620E2222708AA00EF2325241D
:100C90003024DC2C2D0F4D2E9F2E2D08093C031CDB
:100CA000542EF32C012D9F2E2D080D3C031D5A2E82
:100CB000282D9F2E2D080C3C031D602EB1259F2E44
:100CC0002D080F3C031D9F2E2F083502031D7E2E7D
:100CD00030083602031D7E2E31083702031D7E2E9A
:100CE00032083802031D7E2E33083902031D7E2E82
:100CF00034083A02031D7E2EBF259F2EBC013C08FE
:100D0000BB00201020088316870083120714A01050
:100D1000200883168700831287102011200883166D
:100D2000870083120711C021B1259430C800F62036
:100D3000C93003178D0000308F000313C5218316BF
:100D400088178312881FB32E0A30C7002921831603
:100D500088178312881BBF25831688178312881F64
:0A0D6000B32E3024AC2E482E6300A1
:04400E00E22FFF3F5F
:00000001FF
;PIC16F887
;CRC=2650  CREATED="12-May-25 17:49"
